{
  "contractName": "placeDeMarche",
  "abi": [
    {
      "inputs": [],
      "payable": false,
      "stateMutability": "nonpayable",
      "type": "constructor"
    },
    {
      "anonymous": false,
      "inputs": [
        {
          "indexed": false,
          "internalType": "uint256",
          "name": "_indice",
          "type": "uint256"
        },
        {
          "indexed": false,
          "internalType": "address",
          "name": "_add",
          "type": "address"
        }
      ],
      "name": "OffreAccepte",
      "type": "event"
    },
    {
      "constant": true,
      "inputs": [
        {
          "internalType": "address",
          "name": "",
          "type": "address"
        }
      ],
      "name": "balance",
      "outputs": [
        {
          "internalType": "uint256",
          "name": "",
          "type": "uint256"
        }
      ],
      "payable": false,
      "stateMutability": "view",
      "type": "function"
    },
    {
      "constant": true,
      "inputs": [
        {
          "internalType": "uint256",
          "name": "",
          "type": "uint256"
        }
      ],
      "name": "listeDemande",
      "outputs": [
        {
          "internalType": "address",
          "name": "entreprise",
          "type": "address"
        },
        {
          "internalType": "uint256",
          "name": "delai",
          "type": "uint256"
        },
        {
          "internalType": "uint256",
          "name": "startTime",
          "type": "uint256"
        },
        {
          "internalType": "uint256",
          "name": "miniReputation",
          "type": "uint256"
        },
        {
          "internalType": "uint256",
          "name": "remuniration",
          "type": "uint256"
        },
        {
          "internalType": "string",
          "name": "description",
          "type": "string"
        },
        {
          "internalType": "string",
          "name": "lien",
          "type": "string"
        },
        {
          "internalType": "enum placeDeMarche.Etat",
          "name": "etat",
          "type": "uint8"
        },
        {
          "internalType": "bool",
          "name": "estDemande",
          "type": "bool"
        },
        {
          "internalType": "bool",
          "name": "estLivre",
          "type": "bool"
        }
      ],
      "payable": false,
      "stateMutability": "view",
      "type": "function"
    },
    {
      "constant": true,
      "inputs": [
        {
          "internalType": "address",
          "name": "",
          "type": "address"
        }
      ],
      "name": "listeUtilisateur",
      "outputs": [
        {
          "internalType": "uint256",
          "name": "reputation",
          "type": "uint256"
        },
        {
          "internalType": "string",
          "name": "nom",
          "type": "string"
        },
        {
          "internalType": "bool",
          "name": "estUtilisateur",
          "type": "bool"
        }
      ],
      "payable": false,
      "stateMutability": "view",
      "type": "function"
    },
    {
      "constant": false,
      "inputs": [
        {
          "internalType": "string",
          "name": "nom",
          "type": "string"
        },
        {
          "internalType": "uint256",
          "name": "_experience",
          "type": "uint256"
        }
      ],
      "name": "inscription",
      "outputs": [],
      "payable": false,
      "stateMutability": "nonpayable",
      "type": "function"
    },
    {
      "constant": true,
      "inputs": [],
      "name": "balanceOf",
      "outputs": [
        {
          "internalType": "uint256",
          "name": "",
          "type": "uint256"
        }
      ],
      "payable": false,
      "stateMutability": "view",
      "type": "function"
    },
    {
      "constant": false,
      "inputs": [
        {
          "internalType": "string",
          "name": "description",
          "type": "string"
        },
        {
          "internalType": "uint256",
          "name": "miniReputation",
          "type": "uint256"
        },
        {
          "internalType": "uint256",
          "name": "_delai",
          "type": "uint256"
        },
        {
          "internalType": "uint256",
          "name": "remuniration",
          "type": "uint256"
        }
      ],
      "name": "ajouterDemande",
      "outputs": [],
      "payable": true,
      "stateMutability": "payable",
      "type": "function"
    },
    {
      "constant": true,
      "inputs": [
        {
          "internalType": "uint256",
          "name": "_indice",
          "type": "uint256"
        }
      ],
      "name": "postuler",
      "outputs": [],
      "payable": false,
      "stateMutability": "view",
      "type": "function"
    },
    {
      "constant": false,
      "inputs": [
        {
          "internalType": "uint256",
          "name": "_indice",
          "type": "uint256"
        },
        {
          "internalType": "address",
          "name": "_add",
          "type": "address"
        }
      ],
      "name": "accepterOffre",
      "outputs": [],
      "payable": false,
      "stateMutability": "nonpayable",
      "type": "function"
    },
    {
      "constant": false,
      "inputs": [
        {
          "internalType": "uint256",
          "name": "_indice",
          "type": "uint256"
        },
        {
          "internalType": "address",
          "name": "_add",
          "type": "address"
        }
      ],
      "name": "checkDemande",
      "outputs": [
        {
          "internalType": "bool",
          "name": "",
          "type": "bool"
        }
      ],
      "payable": false,
      "stateMutability": "nonpayable",
      "type": "function"
    },
    {
      "constant": false,
      "inputs": [
        {
          "internalType": "string",
          "name": "_lien",
          "type": "string"
        },
        {
          "internalType": "uint256",
          "name": "_indice",
          "type": "uint256"
        }
      ],
      "name": "livraison",
      "outputs": [],
      "payable": false,
      "stateMutability": "nonpayable",
      "type": "function"
    }
  ],
  "bytecode": "0x60806040526064600555606660065534801561001a57600080fd5b50336000806101000a81548173ffffffffffffffffffffffffffffffffffffffff021916908373ffffffffffffffffffffffffffffffffffffffff1602179055506126388061006a6000396000f3fe6080604052600436106100915760003560e01c806365d319821161005957806365d31982146104b0578063722713f714610523578063d30a95a61461054e578063e3d670d714610620578063e783a5b41461068557610091565b806311705e63146100965780632410541c146101685780633996146e146101ff57806345ea43b0146102db5780634d95597d14610316575b600080fd5b3480156100a257600080fd5b50610166600480360360408110156100b957600080fd5b81019080803590602001906401000000008111156100d657600080fd5b8201836020820111156100e857600080fd5b8035906020019184600183028401116401000000008311171561010a57600080fd5b91908080601f016020809104026020016040519081016040528093929190818152602001838380828437600081840152601f19601f820116905080830192505050505050509192919290803590602001909291905050506106e0565b005b6101fd6004803603608081101561017e57600080fd5b810190808035906020019064010000000081111561019b57600080fd5b8201836020820111156101ad57600080fd5b803590602001918460018302840111640100000000831117156101cf57600080fd5b90919293919293908035906020019092919080359060200190929190803590602001909291905050506107ff565b005b34801561020b57600080fd5b5061024e6004803603602081101561022257600080fd5b81019080803573ffffffffffffffffffffffffffffffffffffffff169060200190929190505050610af3565b604051808481526020018060200183151515158152602001828103825284818151815260200191508051906020019080838360005b8381101561029e578082015181840152602081019050610283565b50505050905090810190601f1680156102cb5780820380516001836020036101000a031916815260200191505b5094505050505060405180910390f35b3480156102e757600080fd5b50610314600480360360208110156102fe57600080fd5b8101908080359060200190929190505050610bc2565b005b34801561032257600080fd5b5061034f6004803603602081101561033957600080fd5b8101908080359060200190929190505050610fd9565b604051808b73ffffffffffffffffffffffffffffffffffffffff1673ffffffffffffffffffffffffffffffffffffffff1681526020018a815260200189815260200188815260200187815260200180602001806020018660028111156103b157fe5b60ff1681526020018515151515815260200184151515158152602001838103835288818151815260200191508051906020019080838360005b838110156104055780820151818401526020810190506103ea565b50505050905090810190601f1680156104325780820380516001836020036101000a031916815260200191505b50838103825287818151815260200191508051906020019080838360005b8381101561046b578082015181840152602081019050610450565b50505050905090810190601f1680156104985780820380516001836020036101000a031916815260200191505b509c5050505050505050505050505060405180910390f35b3480156104bc57600080fd5b50610509600480360360408110156104d357600080fd5b8101908080359060200190929190803573ffffffffffffffffffffffffffffffffffffffff1690602001909291905050506111a4565b604051808215151515815260200191505060405180910390f35b34801561052f57600080fd5b5061053861157a565b6040518082815260200191505060405180910390f35b34801561055a57600080fd5b5061061e6004803603604081101561057157600080fd5b810190808035906020019064010000000081111561058e57600080fd5b8201836020820111156105a057600080fd5b803590602001918460018302840111640100000000831117156105c257600080fd5b91908080601f016020809104026020016040519081016040528093929190818152602001838380828437600081840152601f19601f82011690508083019250505050505050919291929080359060200190929190505050611582565b005b34801561062c57600080fd5b5061066f6004803603602081101561064357600080fd5b81019080803573ffffffffffffffffffffffffffffffffffffffff16906020019092919050505061190b565b6040518082815260200191505060405180910390f35b34801561069157600080fd5b506106de600480360360408110156106a857600080fd5b8101908080359060200190929190803573ffffffffffffffffffffffffffffffffffffffff169060200190929190505050611923565b005b600260003373ffffffffffffffffffffffffffffffffffffffff1673ffffffffffffffffffffffffffffffffffffffff16815260200190815260200160002060020160009054906101000a900460ff161561073a57600080fd5b600061074582611d23565b905061074f612422565b604051806060016040528083815260200185815260200160011515815250905080600260003373ffffffffffffffffffffffffffffffffffffffff1673ffffffffffffffffffffffffffffffffffffffff1681526020019081526020016000206000820151816000015560208201518160010190805190602001906107d5929190612445565b5060408201518160020160006101000a81548160ff02191690831515021790555090505050505050565b33600260008273ffffffffffffffffffffffffffffffffffffffff1673ffffffffffffffffffffffffffffffffffffffff16815260200190815260200160002060020160009054906101000a900460ff166108c2576040517f08c379a000000000000000000000000000000000000000000000000000000000815260040180806020018281038252600f8152602001807f706173207574696c69736174657572000000000000000000000000000000000081525060200191505060405180910390fd5b6108cb82611d6f565b60006108d56124c5565b6040518061014001604052803373ffffffffffffffffffffffffffffffffffffffff16815260200186815260200183815260200187815260200185815260200189898080601f016020809104026020016040519081016040528093929190818152602001838380828437600081840152601f19601f8201169050808301925050505050505081526020016040518060200160405280600081525081526020016000600281111561098157fe5b81526020016001151581526020016000151581525090508060036000600454815260200190815260200160002060008201518160000160006101000a81548173ffffffffffffffffffffffffffffffffffffffff021916908373ffffffffffffffffffffffffffffffffffffffff1602179055506020820151816001015560408201518160020155606082015181600301556080820151816004015560a0820151816005019080519060200190610a39929190612445565b5060c0820151816006019080519060200190610a56929190612445565b5060e08201518160070160006101000a81548160ff02191690836002811115610a7b57fe5b02179055506101008201518160090160006101000a81548160ff0219169083151502179055506101208201518160090160016101000a81548160ff0219169083151502179055509050506004600081548092919060010191905055506007600081548092919060010191905055505050505050505050565b6002602052806000526040600020600091509050806000015490806001018054600181600116156101000203166002900480601f016020809104026020016040519081016040528092919081815260200182805460018160011615610100020316600290048015610ba55780601f10610b7a57610100808354040283529160200191610ba5565b820191906000526020600020905b815481529060010190602001808311610b8857829003601f168201915b5050505050908060020160009054906101000a900460ff16905083565b33600260008273ffffffffffffffffffffffffffffffffffffffff1673ffffffffffffffffffffffffffffffffffffffff16815260200190815260200160002060020160009054906101000a900460ff16610c85576040517f08c379a000000000000000000000000000000000000000000000000000000000815260040180806020018281038252600f8152602001807f706173207574696c69736174657572000000000000000000000000000000000081525060200191505060405180910390fd5b816003600082815260200190815260200160002060090160009054906101000a900460ff16610d1c576040517f08c379a000000000000000000000000000000000000000000000000000000000815260040180806020018281038252600b8152602001807f7061732044656d616e646500000000000000000000000000000000000000000081525060200191505060405180910390fd5b826000806002811115610d2b57fe5b6003600084815260200190815260200160002060070160009054906101000a900460ff166002811115610d5a57fe5b14610dcd576040517f08c379a000000000000000000000000000000000000000000000000000000000815260040180806020018281038252600c8152602001807f70617320706f737369626c65000000000000000000000000000000000000000081525060200191505060405180910390fd5b6003600086815260200190815260200160002060000160009054906101000a900473ffffffffffffffffffffffffffffffffffffffff1673ffffffffffffffffffffffffffffffffffffffff163373ffffffffffffffffffffffffffffffffffffffff161415610ea5576040517f08c379a00000000000000000000000000000000000000000000000000000000081526004018080602001828103825260148152602001807f766f7573206574657320656e747265707269736500000000000000000000000081525060200191505060405180910390fd5b600260003373ffffffffffffffffffffffffffffffffffffffff1673ffffffffffffffffffffffffffffffffffffffff1681526020019081526020016000206000015460036000878152602001908152602001600020600301541115610f73576040517f08c379a00000000000000000000000000000000000000000000000000000000081526004018080602001828103825260158152602001807f70617320617373657a2064657870657269656e6365000000000000000000000081525060200191505060405180910390fd5b6003600086815260200190815260200160002060080160003373ffffffffffffffffffffffffffffffffffffffff1673ffffffffffffffffffffffffffffffffffffffff16815260200190815260200160002060009054906101000a9050505050505050565b60036020528060005260406000206000915090508060000160009054906101000a900473ffffffffffffffffffffffffffffffffffffffff1690806001015490806002015490806003015490806004015490806005018054600181600116156101000203166002900480601f0160208091040260200160405190810160405280929190818152602001828054600181600116156101000203166002900480156110c35780601f10611098576101008083540402835291602001916110c3565b820191906000526020600020905b8154815290600101906020018083116110a657829003601f168201915b505050505090806006018054600181600116156101000203166002900480601f0160208091040260200160405190810160405280929190818152602001828054600181600116156101000203166002900480156111615780601f1061113657610100808354040283529160200191611161565b820191906000526020600020905b81548152906001019060200180831161114457829003601f168201915b5050505050908060070160009054906101000a900460ff16908060090160009054906101000a900460ff16908060090160019054906101000a900460ff1690508a565b6000823373ffffffffffffffffffffffffffffffffffffffff166003600083815260200190815260200160002060000160009054906101000a900473ffffffffffffffffffffffffffffffffffffffff1673ffffffffffffffffffffffffffffffffffffffff161461127e576040517f08c379a000000000000000000000000000000000000000000000000000000000815260040180806020018281038252600e8152602001807f70617320656e747265707269736500000000000000000000000000000000000081525060200191505060405180910390fd5b83836003600083815260200190815260200160002060080160008273ffffffffffffffffffffffffffffffffffffffff1673ffffffffffffffffffffffffffffffffffffffff16815260200190815260200160002060009054906101000a900460ff16611353576040517f08c379a00000000000000000000000000000000000000000000000000000000081526004018080602001828103825260178152602001807f566f7573206e657465732070617320616363657074c3a900000000000000000081525060200191505060405180910390fd5b856003600082815260200190815260200160002060090160009054906101000a900460ff166113ea576040517f08c379a000000000000000000000000000000000000000000000000000000000815260040180806020018281038252600b8152602001807f7061732044656d616e646500000000000000000000000000000000000000000081525060200191505060405180910390fd5b8660018060028111156113f957fe5b6003600084815260200190815260200160002060070160009054906101000a900460ff16600281111561142857fe5b1461149b576040517f08c379a000000000000000000000000000000000000000000000000000000000815260040180806020018281038252600c8152602001807f70617320706f737369626c65000000000000000000000000000000000000000081525060200191505060405180910390fd5b6000600360008b81526020019081526020016000206002015490506000600360008c815260200190815260200160002060010154820190504281101561156757600360008c815260200190815260200160002060090160019054906101000a900460ff161561150957600080fd5b600260008b73ffffffffffffffffffffffffffffffffffffffff1673ffffffffffffffffffffffffffffffffffffffff168152602001908152602001600020600001600081548092919060019003919050555060009850505061156e565b6001985050505b50505050505092915050565b600047905090565b80336003600083815260200190815260200160002060080160008273ffffffffffffffffffffffffffffffffffffffff1673ffffffffffffffffffffffffffffffffffffffff16815260200190815260200160002060009054906101000a900460ff16611657576040517f08c379a00000000000000000000000000000000000000000000000000000000081526004018080602001828103825260178152602001807f566f7573206e657465732070617320616363657074c3a900000000000000000081525060200191505060405180910390fd5b826003600082815260200190815260200160002060090160009054906101000a900460ff166116ee576040517f08c379a000000000000000000000000000000000000000000000000000000000815260040180806020018281038252600b8152602001807f7061732044656d616e646500000000000000000000000000000000000000000081525060200191505060405180910390fd5b8360018060028111156116fd57fe5b6003600084815260200190815260200160002060070160009054906101000a900460ff16600281111561172c57fe5b1461179f576040517f08c379a000000000000000000000000000000000000000000000000000000000815260040180806020018281038252600c8152602001807f70617320706f737369626c65000000000000000000000000000000000000000081525060200191505060405180910390fd5b85600260036000600454815260200190815260200160002060090160019054906101000a900460ff161561183b576040517f08c379a000000000000000000000000000000000000000000000000000000000815260040180806020018281038252600a8152602001807f64656a61206c697672650000000000000000000000000000000000000000000081525060200191505060405180910390fd5b606089905080600360008b8152602001908152602001600020600601908051906020019061186a92919061253d565b5061187489611eed565b600260003373ffffffffffffffffffffffffffffffffffffffff1673ffffffffffffffffffffffffffffffffffffffff168152602001908152602001600020600001600081548092919060010191905055506001600360008b815260200190815260200160002060090160016101000a81548160ff0219169083151502179055505061190082826120bf565b505050505050505050565b60016020528060005260406000206000915090505481565b813373ffffffffffffffffffffffffffffffffffffffff166003600083815260200190815260200160002060000160009054906101000a900473ffffffffffffffffffffffffffffffffffffffff1673ffffffffffffffffffffffffffffffffffffffff16146119fb576040517f08c379a000000000000000000000000000000000000000000000000000000000815260040180806020018281038252600e8152602001807f70617320656e747265707269736500000000000000000000000000000000000081525060200191505060405180910390fd5b82826003600083815260200190815260200160002060080160008273ffffffffffffffffffffffffffffffffffffffff1673ffffffffffffffffffffffffffffffffffffffff16815260200190815260200160002060009054906101000a900460ff16611ad0576040517f08c379a000000000000000000000000000000000000000000000000000000000815260040180806020018281038252600c8152602001807f7061732043616e6469646174000000000000000000000000000000000000000081525060200191505060405180910390fd5b846003600082815260200190815260200160002060090160009054906101000a900460ff16611b67576040517f08c379a000000000000000000000000000000000000000000000000000000000815260040180806020018281038252600b8152602001807f7061732044656d616e646500000000000000000000000000000000000000000081525060200191505060405180910390fd5b856000806002811115611b7657fe5b6003600084815260200190815260200160002060070160009054906101000a900460ff166002811115611ba557fe5b14611c18576040517f08c379a000000000000000000000000000000000000000000000000000000000815260040180806020018281038252600c8152602001807f70617320706f737369626c65000000000000000000000000000000000000000081525060200191505060405180910390fd5b87600142600360008c8152602001908152602001600020600201819055506001600360008c815260200190815260200160002060080160008b73ffffffffffffffffffffffffffffffffffffffff1673ffffffffffffffffffffffffffffffffffffffff16815260200190815260200160002060006101000a81548160ff0219169083151502179055507f96b32a168a4f7557a78152b12083447e96a58aba14cb082be9e45fde28e209fd8a8a604051808381526020018273ffffffffffffffffffffffffffffffffffffffff1673ffffffffffffffffffffffffffffffffffffffff1681526020019250505060405180910390a1611d1782826120bf565b50505050505050505050565b6000806002831015611d385760019050611d66565b60028310158015611d495750600583105b15611d575760039050611d65565b60058310611d6457600590505b5b5b80915050919050565b6000611d9a600554611d8c600654856120fa90919063ffffffff16565b61218090919063ffffffff16565b905080341015611e12576040517f08c379a00000000000000000000000000000000000000000000000000000000081526004018080602001828103825260108152602001807f50617320617373657a206465205745490000000000000000000000000000000081525060200191505060405180910390fd5b611e8534600160008060009054906101000a900473ffffffffffffffffffffffffffffffffffffffff1673ffffffffffffffffffffffffffffffffffffffff1673ffffffffffffffffffffffffffffffffffffffff168152602001908152602001600020546121ca90919063ffffffff16565b600160008060009054906101000a900473ffffffffffffffffffffffffffffffffffffffff1673ffffffffffffffffffffffffffffffffffffffff1673ffffffffffffffffffffffffffffffffffffffff168152602001908152602001600020819055505050565b600060036000838152602001908152602001600020600401549050611f7b81600160008060009054906101000a900473ffffffffffffffffffffffffffffffffffffffff1673ffffffffffffffffffffffffffffffffffffffff1673ffffffffffffffffffffffffffffffffffffffff1681526020019081526020016000205461225290919063ffffffff16565b600160008060009054906101000a900473ffffffffffffffffffffffffffffffffffffffff1673ffffffffffffffffffffffffffffffffffffffff1673ffffffffffffffffffffffffffffffffffffffff1681526020019081526020016000208190555061203181600160003373ffffffffffffffffffffffffffffffffffffffff1673ffffffffffffffffffffffffffffffffffffffff168152602001908152602001600020546121ca90919063ffffffff16565b600160003373ffffffffffffffffffffffffffffffffffffffff1673ffffffffffffffffffffffffffffffffffffffff168152602001908152602001600020819055503373ffffffffffffffffffffffffffffffffffffffff166108fc829081150290604051600060405180830381858888f193505050501580156120ba573d6000803e3d6000fd5b505050565b806003600084815260200190815260200160002060070160006101000a81548160ff021916908360028111156120f157fe5b02179055505050565b60008083141561210d576000905061217a565b600082840290508284828161211e57fe5b0414612175576040517f08c379a00000000000000000000000000000000000000000000000000000000081526004018080602001828103825260218152602001806125e36021913960400191505060405180910390fd5b809150505b92915050565b60006121c283836040518060400160405280601a81526020017f536166654d6174683a206469766973696f6e206279207a65726f00000000000081525061229c565b905092915050565b600080828401905083811015612248576040517f08c379a000000000000000000000000000000000000000000000000000000000815260040180806020018281038252601b8152602001807f536166654d6174683a206164646974696f6e206f766572666c6f77000000000081525060200191505060405180910390fd5b8091505092915050565b600061229483836040518060400160405280601e81526020017f536166654d6174683a207375627472616374696f6e206f766572666c6f770000815250612362565b905092915050565b60008083118290612348576040517f08c379a00000000000000000000000000000000000000000000000000000000081526004018080602001828103825283818151815260200191508051906020019080838360005b8381101561230d5780820151818401526020810190506122f2565b50505050905090810190601f16801561233a5780820380516001836020036101000a031916815260200191505b509250505060405180910390fd5b50600083858161235457fe5b049050809150509392505050565b600083831115829061240f576040517f08c379a00000000000000000000000000000000000000000000000000000000081526004018080602001828103825283818151815260200191508051906020019080838360005b838110156123d45780820151818401526020810190506123b9565b50505050905090810190601f1680156124015780820380516001836020036101000a031916815260200191505b509250505060405180910390fd5b5060008385039050809150509392505050565b604051806060016040528060008152602001606081526020016000151581525090565b828054600181600116156101000203166002900490600052602060002090601f016020900481019282601f1061248657805160ff19168380011785556124b4565b828001600101855582156124b4579182015b828111156124b3578251825591602001919060010190612498565b5b5090506124c191906125bd565b5090565b604051806101400160405280600073ffffffffffffffffffffffffffffffffffffffff1681526020016000815260200160008152602001600081526020016000815260200160608152602001606081526020016000600281111561252557fe5b81526020016000151581526020016000151581525090565b828054600181600116156101000203166002900490600052602060002090601f016020900481019282601f1061257e57805160ff19168380011785556125ac565b828001600101855582156125ac579182015b828111156125ab578251825591602001919060010190612590565b5b5090506125b991906125bd565b5090565b6125df91905b808211156125db5760008160009055506001016125c3565b5090565b9056fe536166654d6174683a206d756c7469706c69636174696f6e206f766572666c6f77a265627a7a72315820874c1df1661351e7a00f550764dd21e702b9796d275be848aa32b5bb08273b1364736f6c63430005100032",
  "source": "pragma solidity ^0.5.11;\r\n\r\nimport \"@openzeppelin/contracts/math/SafeMath.sol\";\r\n\r\ncontract placeDeMarche{\r\n    \r\n      using SafeMath for uint256;\r\n    \r\n    struct Utilisateur{\r\n        uint256 reputation;\r\n        string nom;\r\n        bool estUtilisateur;\r\n    }\r\n    \r\n    struct Demande{\r\n            address entreprise;\r\n            uint256 delai;\r\n            uint256 startTime;\r\n            uint256 miniReputation;\r\n            uint256 remuniration;\r\n            string description;\r\n            string lien;\r\n            Etat etat;\r\n            mapping(address=>bool) listeCandidats;\r\n            bool estDemande;\r\n            bool estLivre;\r\n    }\r\n    \r\n    address owner;\r\n    mapping(address =>uint256)public balance;\r\n    mapping (address=>Utilisateur) public listeUtilisateur;\r\n    mapping (uint256=>Demande) public listeDemande;\r\n    \r\n    uint256 indice;\r\n    uint256 decimal=100;\r\n    uint256 frais=102;\r\n    uint256 compteurIndice;\r\n\r\n    event OffreAccepte(uint256 _indice,address _add);\r\n    \r\n    enum Etat {OUVERTE, ENCOURS, FERMEE}\r\n    Etat etat;\r\n    \r\n//constructor\r\n    constructor()public{\r\n        owner=msg.sender;\r\n    }\r\n    \r\n    //l'etat de la demande\r\n\r\n    modifier etatDemande(uint256 _indice,Etat _etat){\r\n        require(listeDemande[_indice].etat == _etat,'pas possible');\r\n        _;\r\n    }\r\n    \r\n    //fonction pour passer  l'etat suivante\r\n    function changeEtat(uint256 _indice,Etat _etat)internal{\r\n        listeDemande[_indice].etat=_etat;\r\n    }\r\n    \r\n    //passer  l'eta suivante apres l'execution de la fonction\r\n    modifier nextEtatDemande(uint256 _indice,Etat _etat){\r\n        _;\r\n        changeEtat(_indice,_etat);\r\n    }\r\n \r\n //fonction pour vridier si c'est un utilisateurs\r\nmodifier estUtilisateur(address _adress){\r\n     require(listeUtilisateur[_adress].estUtilisateur,'pas utilisateur');\r\n  //      estUtilisateur = true;\r\n        _;\r\n}\r\n\r\nmodifier chekDemande(uint256 _indice){\r\n  require(listeDemande[_indice].estDemande,'pas Demande');\r\n  //  estDemande=true;\r\n        _;\r\n}\r\n\r\n\r\nmodifier estCandidat(uint256 _indice,address _add){\r\n     require(listeDemande[_indice].listeCandidats[_add],'pas Candidat');\r\n //       estCandidat = true;\r\n        _;\r\n}\r\n\r\nmodifier estEntreprise(uint256 _indice){\r\n     require(listeDemande[_indice].entreprise==msg.sender,'pas entreprise');\r\n   //     estEntreprise= true;\r\n        _;\r\n}\r\n\r\nmodifier estAccepte (uint256 _indice,address _add){\r\n       require(listeDemande[_indice].listeCandidats[_add],'Vous netes pas accept');\r\n       _;\r\n}\r\n\r\n    //inscrir un utilisateur\r\nfunction inscription (string memory nom,uint256 _experience)public{\r\n        require(!listeUtilisateur[msg.sender].estUtilisateur);\r\n        uint256 reputation=experience(_experience);\r\n       Utilisateur memory nouveauUtilisateur=Utilisateur(reputation,nom,true);\r\n       listeUtilisateur[msg.sender]=nouveauUtilisateur;\r\n      //  utilisateurs.push(msg.sender);\r\n    }\r\n\r\n//pour donner une reputation en fonction de l'experience\r\nfunction experience(uint256 _experience)internal pure returns(uint256){\r\n        uint256 exp;\r\n        if(_experience<2){\r\n           exp=1;\r\n        }else if(_experience>=2 && _experience<5){\r\n            exp=3;\r\n        }else if(_experience>=5){\r\n            exp=5;\r\n        }\r\n         return exp;\r\n    }\r\n    \r\n\r\nfunction balanceOf()external view returns(uint256){\r\n    return address(this).balance;\r\n}\r\n\r\nfunction payer(uint256 _somme) private{\r\n   uint256 somme=(_somme.mul(frais)).div(decimal);\r\n    require(msg.value>=somme,'Pas assez de WEI');\r\n    balance[owner]=balance[owner].add(msg.value);\r\n}\r\n\r\nfunction remunerer(uint256 _indice)private{\r\n    uint256 remuniration=listeDemande[_indice].remuniration;\r\n    balance[owner]=balance[owner].sub(remuniration);\r\n    balance[msg.sender]=balance[msg.sender].add(remuniration);\r\n    msg.sender.transfer(remuniration);\r\n}\r\n\r\nfunction ajouterDemande(string calldata description,uint256 miniReputation,uint256 _delai, uint256 remuniration)\r\n    external\r\n    payable \r\n    estUtilisateur(msg.sender){\r\n        payer(remuniration);\r\n        uint256 startTime;\r\n        Demande memory nouvelleDemande=Demande(msg.sender,_delai,startTime,miniReputation,remuniration,description,\"\",Etat.OUVERTE,true,false);\r\n        listeDemande[indice]=nouvelleDemande;\r\n        indice++;\r\n        compteurIndice++;\r\n    }\r\n/*\r\nfunction listerDemande () \r\n        public \r\n        view\r\n        returns(string memory ,uint256)\r\n        {\r\n            uint256 miniReputation;\r\n            string memory description;\r\n            for(uint256 i=0 ; i<compteurIndice ; i++){\r\n                miniReputation=listeDemande[i].miniReputation;\r\n                description=listeDemande[i].description;\r\n              return (description,miniReputation);\r\n            }\r\n        }\r\n\r\n*/\r\nfunction postuler(uint256 _indice) \r\n        public \r\n        view\r\n        estUtilisateur(msg.sender) \r\n        chekDemande(_indice)\r\n        etatDemande( _indice,Etat.OUVERTE)\r\n        {\r\n            require(msg.sender!=listeDemande[_indice].entreprise,'vous etes entreprise');\r\n        //avant tout faut verifier l'etat de la demande\r\n            require(listeDemande[_indice].miniReputation<=listeUtilisateur[msg.sender].reputation,'pas assez dexperience');\r\n            listeDemande[_indice].listeCandidats[msg.sender];\r\n            //creation event pour prevenir recruteur\r\n        }\r\n\r\n\r\nfunction accepterOffre(uint256 _indice,address _add)\r\n        public\r\n        estEntreprise(_indice) \r\n        estCandidat(_indice,_add)\r\n        chekDemande(_indice)\r\n        etatDemande( _indice,Etat.OUVERTE)\r\n        nextEtatDemande(_indice,Etat.ENCOURS)\r\n        {\r\n           listeDemande[_indice].startTime=now;\r\n            listeDemande[_indice].listeCandidats[_add]=true;\r\n                emit OffreAccepte(_indice, _add);\r\n        }\r\n\r\n\r\n\r\nfunction checkDemande(uint256 _indice,address _add)\r\n        public\r\n        estEntreprise(_indice) \r\n        estAccepte( _indice, _add)\r\n        chekDemande(_indice)\r\n        etatDemande( _indice,Etat.ENCOURS)\r\n        returns(bool)\r\n    {\r\n    uint256 startTime=listeDemande[_indice].startTime;\r\n    uint256 delai = startTime+listeDemande[_indice].delai;\r\n     if(delai<now){\r\n       require(!listeDemande[_indice].estLivre);\r\n           listeUtilisateur[_add].reputation--;\r\n           return false;\r\n     }else{\r\n         return true;\r\n     }\r\n}\r\n\r\nfunction livraison(string memory _lien,uint256 _indice)\r\n        public\r\n        estAccepte( _indice,msg.sender) \r\n        chekDemande(_indice) \r\n        etatDemande( _indice,Etat.ENCOURS)\r\n        nextEtatDemande(_indice,Etat.FERMEE)\r\n        {\r\n            require(!listeDemande[indice].estLivre,'deja livre');\r\n            string memory lien = _lien;\r\n            listeDemande[_indice].lien=lien;//faut hacher le lien\r\n            remunerer(_indice);\r\n            listeUtilisateur[msg.sender].reputation++;\r\n           listeDemande[_indice].estLivre=true;\r\n        }\r\n\r\n\r\n}\r\n\r\n",
  "sourcePath": "C:\\Users\\khati\\Desktop\\Defi-II\\placedemarche\\contracts\\PlaceDeMarche.sol",
  "compiler": {
    "name": "solc",
    "version": "0.5.16+commit.9c3226ce.Emscripten.clang"
  },
  "schemaVersion": "3.0.23",
  "updatedAt": "2020-03-04T15:30:42.316Z",
  "devdoc": {
    "methods": {}
  },
  "userdoc": {
    "methods": {}
  }
}