{
  "contractName": "placeDeMarche",
  "abi": [
    {
      "inputs": [],
      "payable": false,
      "stateMutability": "nonpayable",
      "type": "constructor"
    },
    {
      "anonymous": false,
      "inputs": [
        {
          "indexed": false,
          "internalType": "uint256",
          "name": "_indice",
          "type": "uint256"
        },
        {
          "indexed": false,
          "internalType": "address",
          "name": "_add",
          "type": "address"
        }
      ],
      "name": "OffreAccepte",
      "type": "event"
    },
    {
      "constant": true,
      "inputs": [
        {
          "internalType": "address",
          "name": "",
          "type": "address"
        }
      ],
      "name": "balance",
      "outputs": [
        {
          "internalType": "uint256",
          "name": "",
          "type": "uint256"
        }
      ],
      "payable": false,
      "stateMutability": "view",
      "type": "function"
    },
    {
      "constant": true,
      "inputs": [
        {
          "internalType": "uint256",
          "name": "",
          "type": "uint256"
        }
      ],
      "name": "listeDemande",
      "outputs": [
        {
          "internalType": "address",
          "name": "entreprise",
          "type": "address"
        },
        {
          "internalType": "uint256",
          "name": "delai",
          "type": "uint256"
        },
        {
          "internalType": "uint256",
          "name": "startTime",
          "type": "uint256"
        },
        {
          "internalType": "uint256",
          "name": "miniReputation",
          "type": "uint256"
        },
        {
          "internalType": "uint256",
          "name": "remuniration",
          "type": "uint256"
        },
        {
          "internalType": "string",
          "name": "description",
          "type": "string"
        },
        {
          "internalType": "string",
          "name": "lien",
          "type": "string"
        },
        {
          "internalType": "enum placeDeMarche.Etat",
          "name": "etat",
          "type": "uint8"
        },
        {
          "internalType": "bool",
          "name": "estDemande",
          "type": "bool"
        },
        {
          "internalType": "bool",
          "name": "estLivre",
          "type": "bool"
        }
      ],
      "payable": false,
      "stateMutability": "view",
      "type": "function"
    },
    {
      "constant": true,
      "inputs": [
        {
          "internalType": "address",
          "name": "",
          "type": "address"
        }
      ],
      "name": "listeUtilisateur",
      "outputs": [
        {
          "internalType": "uint256",
          "name": "reputation",
          "type": "uint256"
        },
        {
          "internalType": "string",
          "name": "nom",
          "type": "string"
        },
        {
          "internalType": "bool",
          "name": "estUtilisateur",
          "type": "bool"
        }
      ],
      "payable": false,
      "stateMutability": "view",
      "type": "function"
    },
    {
      "constant": false,
      "inputs": [
        {
          "internalType": "string",
          "name": "nom",
          "type": "string"
        },
        {
          "internalType": "uint256",
          "name": "_experience",
          "type": "uint256"
        }
      ],
      "name": "inscription",
      "outputs": [],
      "payable": false,
      "stateMutability": "nonpayable",
      "type": "function"
    },
    {
      "constant": true,
      "inputs": [],
      "name": "balanceOf",
      "outputs": [
        {
          "internalType": "uint256",
          "name": "",
          "type": "uint256"
        }
      ],
      "payable": false,
      "stateMutability": "view",
      "type": "function"
    },
    {
      "constant": false,
      "inputs": [
        {
          "internalType": "string",
          "name": "description",
          "type": "string"
        },
        {
          "internalType": "uint256",
          "name": "miniReputation",
          "type": "uint256"
        },
        {
          "internalType": "uint256",
          "name": "_delai",
          "type": "uint256"
        },
        {
          "internalType": "uint256",
          "name": "remuniration",
          "type": "uint256"
        }
      ],
      "name": "ajouterDemande",
      "outputs": [],
      "payable": true,
      "stateMutability": "payable",
      "type": "function"
    },
    {
      "constant": true,
      "inputs": [],
      "name": "listerDemande",
      "outputs": [
        {
          "internalType": "string",
          "name": "",
          "type": "string"
        },
        {
          "internalType": "uint256",
          "name": "",
          "type": "uint256"
        }
      ],
      "payable": false,
      "stateMutability": "view",
      "type": "function"
    },
    {
      "constant": true,
      "inputs": [
        {
          "internalType": "uint256",
          "name": "_indice",
          "type": "uint256"
        }
      ],
      "name": "postuler",
      "outputs": [],
      "payable": false,
      "stateMutability": "view",
      "type": "function"
    },
    {
      "constant": false,
      "inputs": [
        {
          "internalType": "uint256",
          "name": "_indice",
          "type": "uint256"
        },
        {
          "internalType": "address",
          "name": "_add",
          "type": "address"
        }
      ],
      "name": "accepterOffre",
      "outputs": [],
      "payable": false,
      "stateMutability": "nonpayable",
      "type": "function"
    },
    {
      "constant": false,
      "inputs": [
        {
          "internalType": "uint256",
          "name": "_indice",
          "type": "uint256"
        },
        {
          "internalType": "address",
          "name": "_add",
          "type": "address"
        }
      ],
      "name": "checkDemande",
      "outputs": [
        {
          "internalType": "bool",
          "name": "",
          "type": "bool"
        }
      ],
      "payable": false,
      "stateMutability": "nonpayable",
      "type": "function"
    },
    {
      "constant": false,
      "inputs": [
        {
          "internalType": "string",
          "name": "_lien",
          "type": "string"
        },
        {
          "internalType": "uint256",
          "name": "_indice",
          "type": "uint256"
        }
      ],
      "name": "livraison",
      "outputs": [],
      "payable": false,
      "stateMutability": "nonpayable",
      "type": "function"
    }
  ],
  "bytecode": "0x60806040526064600555606660065534801561001a57600080fd5b50336000806101000a81548173ffffffffffffffffffffffffffffffffffffffff021916908373ffffffffffffffffffffffffffffffffffffffff1602179055506127d08061006a6000396000f3fe60806040526004361061009c5760003560e01c806365d319821161006457806365d31982146104bb578063722713f71461052e57806384cd075a14610559578063d30a95a6146105f0578063e3d670d7146106c2578063e783a5b4146107275761009c565b806311705e63146100a15780632410541c146101735780633996146e1461020a57806345ea43b0146102e65780634d95597d14610321575b600080fd5b3480156100ad57600080fd5b50610171600480360360408110156100c457600080fd5b81019080803590602001906401000000008111156100e157600080fd5b8201836020820111156100f357600080fd5b8035906020019184600183028401116401000000008311171561011557600080fd5b91908080601f016020809104026020016040519081016040528093929190818152602001838380828437600081840152601f19601f82011690508083019250505050505050919291929080359060200190929190505050610782565b005b6102086004803603608081101561018957600080fd5b81019080803590602001906401000000008111156101a657600080fd5b8201836020820111156101b857600080fd5b803590602001918460018302840111640100000000831117156101da57600080fd5b90919293919293908035906020019092919080359060200190929190803590602001909291905050506108a1565b005b34801561021657600080fd5b506102596004803603602081101561022d57600080fd5b81019080803573ffffffffffffffffffffffffffffffffffffffff169060200190929190505050610b95565b604051808481526020018060200183151515158152602001828103825284818151815260200191508051906020019080838360005b838110156102a957808201518184015260208101905061028e565b50505050905090810190601f1680156102d65780820380516001836020036101000a031916815260200191505b5094505050505060405180910390f35b3480156102f257600080fd5b5061031f6004803603602081101561030957600080fd5b8101908080359060200190929190505050610c64565b005b34801561032d57600080fd5b5061035a6004803603602081101561034457600080fd5b810190808035906020019092919050505061107b565b604051808b73ffffffffffffffffffffffffffffffffffffffff1673ffffffffffffffffffffffffffffffffffffffff1681526020018a815260200189815260200188815260200187815260200180602001806020018660028111156103bc57fe5b60ff1681526020018515151515815260200184151515158152602001838103835288818151815260200191508051906020019080838360005b838110156104105780820151818401526020810190506103f5565b50505050905090810190601f16801561043d5780820380516001836020036101000a031916815260200191505b50838103825287818151815260200191508051906020019080838360005b8381101561047657808201518184015260208101905061045b565b50505050905090810190601f1680156104a35780820380516001836020036101000a031916815260200191505b509c5050505050505050505050505060405180910390f35b3480156104c757600080fd5b50610514600480360360408110156104de57600080fd5b8101908080359060200190929190803573ffffffffffffffffffffffffffffffffffffffff169060200190929190505050611246565b604051808215151515815260200191505060405180910390f35b34801561053a57600080fd5b5061054361161c565b6040518082815260200191505060405180910390f35b34801561056557600080fd5b5061056e611624565b6040518080602001838152602001828103825284818151815260200191508051906020019080838360005b838110156105b4578082015181840152602081019050610599565b50505050905090810190601f1680156105e15780820380516001836020036101000a031916815260200191505b50935050505060405180910390f35b3480156105fc57600080fd5b506106c06004803603604081101561061357600080fd5b810190808035906020019064010000000081111561063057600080fd5b82018360208201111561064257600080fd5b8035906020019184600183028401116401000000008311171561066457600080fd5b91908080601f016020809104026020016040519081016040528093929190818152602001838380828437600081840152601f19601f8201169050808301925050505050505091929192908035906020019092919050505061171a565b005b3480156106ce57600080fd5b50610711600480360360208110156106e557600080fd5b81019080803573ffffffffffffffffffffffffffffffffffffffff169060200190929190505050611aa3565b6040518082815260200191505060405180910390f35b34801561073357600080fd5b506107806004803603604081101561074a57600080fd5b8101908080359060200190929190803573ffffffffffffffffffffffffffffffffffffffff169060200190929190505050611abb565b005b600260003373ffffffffffffffffffffffffffffffffffffffff1673ffffffffffffffffffffffffffffffffffffffff16815260200190815260200160002060020160009054906101000a900460ff16156107dc57600080fd5b60006107e782611ebb565b90506107f16125ba565b604051806060016040528083815260200185815260200160011515815250905080600260003373ffffffffffffffffffffffffffffffffffffffff1673ffffffffffffffffffffffffffffffffffffffff1681526020019081526020016000206000820151816000015560208201518160010190805190602001906108779291906125dd565b5060408201518160020160006101000a81548160ff02191690831515021790555090505050505050565b33600260008273ffffffffffffffffffffffffffffffffffffffff1673ffffffffffffffffffffffffffffffffffffffff16815260200190815260200160002060020160009054906101000a900460ff16610964576040517f08c379a000000000000000000000000000000000000000000000000000000000815260040180806020018281038252600f8152602001807f706173207574696c69736174657572000000000000000000000000000000000081525060200191505060405180910390fd5b61096d82611f07565b600061097761265d565b6040518061014001604052803373ffffffffffffffffffffffffffffffffffffffff16815260200186815260200183815260200187815260200185815260200189898080601f016020809104026020016040519081016040528093929190818152602001838380828437600081840152601f19601f82011690508083019250505050505050815260200160405180602001604052806000815250815260200160006002811115610a2357fe5b81526020016001151581526020016000151581525090508060036000600454815260200190815260200160002060008201518160000160006101000a81548173ffffffffffffffffffffffffffffffffffffffff021916908373ffffffffffffffffffffffffffffffffffffffff1602179055506020820151816001015560408201518160020155606082015181600301556080820151816004015560a0820151816005019080519060200190610adb9291906125dd565b5060c0820151816006019080519060200190610af89291906125dd565b5060e08201518160070160006101000a81548160ff02191690836002811115610b1d57fe5b02179055506101008201518160090160006101000a81548160ff0219169083151502179055506101208201518160090160016101000a81548160ff0219169083151502179055509050506004600081548092919060010191905055506007600081548092919060010191905055505050505050505050565b6002602052806000526040600020600091509050806000015490806001018054600181600116156101000203166002900480601f016020809104026020016040519081016040528092919081815260200182805460018160011615610100020316600290048015610c475780601f10610c1c57610100808354040283529160200191610c47565b820191906000526020600020905b815481529060010190602001808311610c2a57829003601f168201915b5050505050908060020160009054906101000a900460ff16905083565b33600260008273ffffffffffffffffffffffffffffffffffffffff1673ffffffffffffffffffffffffffffffffffffffff16815260200190815260200160002060020160009054906101000a900460ff16610d27576040517f08c379a000000000000000000000000000000000000000000000000000000000815260040180806020018281038252600f8152602001807f706173207574696c69736174657572000000000000000000000000000000000081525060200191505060405180910390fd5b816003600082815260200190815260200160002060090160009054906101000a900460ff16610dbe576040517f08c379a000000000000000000000000000000000000000000000000000000000815260040180806020018281038252600b8152602001807f7061732044656d616e646500000000000000000000000000000000000000000081525060200191505060405180910390fd5b826000806002811115610dcd57fe5b6003600084815260200190815260200160002060070160009054906101000a900460ff166002811115610dfc57fe5b14610e6f576040517f08c379a000000000000000000000000000000000000000000000000000000000815260040180806020018281038252600c8152602001807f70617320706f737369626c65000000000000000000000000000000000000000081525060200191505060405180910390fd5b6003600086815260200190815260200160002060000160009054906101000a900473ffffffffffffffffffffffffffffffffffffffff1673ffffffffffffffffffffffffffffffffffffffff163373ffffffffffffffffffffffffffffffffffffffff161415610f47576040517f08c379a00000000000000000000000000000000000000000000000000000000081526004018080602001828103825260148152602001807f766f7573206574657320656e747265707269736500000000000000000000000081525060200191505060405180910390fd5b600260003373ffffffffffffffffffffffffffffffffffffffff1673ffffffffffffffffffffffffffffffffffffffff1681526020019081526020016000206000015460036000878152602001908152602001600020600301541115611015576040517f08c379a00000000000000000000000000000000000000000000000000000000081526004018080602001828103825260158152602001807f70617320617373657a2064657870657269656e6365000000000000000000000081525060200191505060405180910390fd5b6003600086815260200190815260200160002060080160003373ffffffffffffffffffffffffffffffffffffffff1673ffffffffffffffffffffffffffffffffffffffff16815260200190815260200160002060009054906101000a9050505050505050565b60036020528060005260406000206000915090508060000160009054906101000a900473ffffffffffffffffffffffffffffffffffffffff1690806001015490806002015490806003015490806004015490806005018054600181600116156101000203166002900480601f0160208091040260200160405190810160405280929190818152602001828054600181600116156101000203166002900480156111655780601f1061113a57610100808354040283529160200191611165565b820191906000526020600020905b81548152906001019060200180831161114857829003601f168201915b505050505090806006018054600181600116156101000203166002900480601f0160208091040260200160405190810160405280929190818152602001828054600181600116156101000203166002900480156112035780601f106111d857610100808354040283529160200191611203565b820191906000526020600020905b8154815290600101906020018083116111e657829003601f168201915b5050505050908060070160009054906101000a900460ff16908060090160009054906101000a900460ff16908060090160019054906101000a900460ff1690508a565b6000823373ffffffffffffffffffffffffffffffffffffffff166003600083815260200190815260200160002060000160009054906101000a900473ffffffffffffffffffffffffffffffffffffffff1673ffffffffffffffffffffffffffffffffffffffff1614611320576040517f08c379a000000000000000000000000000000000000000000000000000000000815260040180806020018281038252600e8152602001807f70617320656e747265707269736500000000000000000000000000000000000081525060200191505060405180910390fd5b83836003600083815260200190815260200160002060080160008273ffffffffffffffffffffffffffffffffffffffff1673ffffffffffffffffffffffffffffffffffffffff16815260200190815260200160002060009054906101000a900460ff166113f5576040517f08c379a00000000000000000000000000000000000000000000000000000000081526004018080602001828103825260178152602001807f566f7573206e657465732070617320616363657074c3a900000000000000000081525060200191505060405180910390fd5b856003600082815260200190815260200160002060090160009054906101000a900460ff1661148c576040517f08c379a000000000000000000000000000000000000000000000000000000000815260040180806020018281038252600b8152602001807f7061732044656d616e646500000000000000000000000000000000000000000081525060200191505060405180910390fd5b86600180600281111561149b57fe5b6003600084815260200190815260200160002060070160009054906101000a900460ff1660028111156114ca57fe5b1461153d576040517f08c379a000000000000000000000000000000000000000000000000000000000815260040180806020018281038252600c8152602001807f70617320706f737369626c65000000000000000000000000000000000000000081525060200191505060405180910390fd5b6000600360008b81526020019081526020016000206002015490506000600360008c815260200190815260200160002060010154820190504281101561160957600360008c815260200190815260200160002060090160019054906101000a900460ff16156115ab57600080fd5b600260008b73ffffffffffffffffffffffffffffffffffffffff1673ffffffffffffffffffffffffffffffffffffffff1681526020019081526020016000206000016000815480929190600190039190505550600098505050611610565b6001985050505b50505050505092915050565b600047905090565b6060600080606060008090506007548110156117125760036000828152602001908152602001600020600301549250600360008281526020019081526020016000206005018054600181600116156101000203166002900480601f0160208091040260200160405190810160405280929190818152602001828054600181600116156101000203166002900480156116fd5780601f106116d2576101008083540402835291602001916116fd565b820191906000526020600020905b8154815290600101906020018083116116e057829003601f168201915b50505050509150818394509450505050611716565b5050505b9091565b80336003600083815260200190815260200160002060080160008273ffffffffffffffffffffffffffffffffffffffff1673ffffffffffffffffffffffffffffffffffffffff16815260200190815260200160002060009054906101000a900460ff166117ef576040517f08c379a00000000000000000000000000000000000000000000000000000000081526004018080602001828103825260178152602001807f566f7573206e657465732070617320616363657074c3a900000000000000000081525060200191505060405180910390fd5b826003600082815260200190815260200160002060090160009054906101000a900460ff16611886576040517f08c379a000000000000000000000000000000000000000000000000000000000815260040180806020018281038252600b8152602001807f7061732044656d616e646500000000000000000000000000000000000000000081525060200191505060405180910390fd5b83600180600281111561189557fe5b6003600084815260200190815260200160002060070160009054906101000a900460ff1660028111156118c457fe5b14611937576040517f08c379a000000000000000000000000000000000000000000000000000000000815260040180806020018281038252600c8152602001807f70617320706f737369626c65000000000000000000000000000000000000000081525060200191505060405180910390fd5b85600260036000600454815260200190815260200160002060090160019054906101000a900460ff16156119d3576040517f08c379a000000000000000000000000000000000000000000000000000000000815260040180806020018281038252600a8152602001807f64656a61206c697672650000000000000000000000000000000000000000000081525060200191505060405180910390fd5b606089905080600360008b81526020019081526020016000206006019080519060200190611a029291906126d5565b50611a0c89612085565b600260003373ffffffffffffffffffffffffffffffffffffffff1673ffffffffffffffffffffffffffffffffffffffff168152602001908152602001600020600001600081548092919060010191905055506001600360008b815260200190815260200160002060090160016101000a81548160ff02191690831515021790555050611a988282612257565b505050505050505050565b60016020528060005260406000206000915090505481565b813373ffffffffffffffffffffffffffffffffffffffff166003600083815260200190815260200160002060000160009054906101000a900473ffffffffffffffffffffffffffffffffffffffff1673ffffffffffffffffffffffffffffffffffffffff1614611b93576040517f08c379a000000000000000000000000000000000000000000000000000000000815260040180806020018281038252600e8152602001807f70617320656e747265707269736500000000000000000000000000000000000081525060200191505060405180910390fd5b82826003600083815260200190815260200160002060080160008273ffffffffffffffffffffffffffffffffffffffff1673ffffffffffffffffffffffffffffffffffffffff16815260200190815260200160002060009054906101000a900460ff16611c68576040517f08c379a000000000000000000000000000000000000000000000000000000000815260040180806020018281038252600c8152602001807f7061732043616e6469646174000000000000000000000000000000000000000081525060200191505060405180910390fd5b846003600082815260200190815260200160002060090160009054906101000a900460ff16611cff576040517f08c379a000000000000000000000000000000000000000000000000000000000815260040180806020018281038252600b8152602001807f7061732044656d616e646500000000000000000000000000000000000000000081525060200191505060405180910390fd5b856000806002811115611d0e57fe5b6003600084815260200190815260200160002060070160009054906101000a900460ff166002811115611d3d57fe5b14611db0576040517f08c379a000000000000000000000000000000000000000000000000000000000815260040180806020018281038252600c8152602001807f70617320706f737369626c65000000000000000000000000000000000000000081525060200191505060405180910390fd5b87600142600360008c8152602001908152602001600020600201819055506001600360008c815260200190815260200160002060080160008b73ffffffffffffffffffffffffffffffffffffffff1673ffffffffffffffffffffffffffffffffffffffff16815260200190815260200160002060006101000a81548160ff0219169083151502179055507f96b32a168a4f7557a78152b12083447e96a58aba14cb082be9e45fde28e209fd8a8a604051808381526020018273ffffffffffffffffffffffffffffffffffffffff1673ffffffffffffffffffffffffffffffffffffffff1681526020019250505060405180910390a1611eaf8282612257565b50505050505050505050565b6000806002831015611ed05760019050611efe565b60028310158015611ee15750600583105b15611eef5760039050611efd565b60058310611efc57600590505b5b5b80915050919050565b6000611f32600554611f246006548561229290919063ffffffff16565b61231890919063ffffffff16565b905080341015611faa576040517f08c379a00000000000000000000000000000000000000000000000000000000081526004018080602001828103825260108152602001807f50617320617373657a206465205745490000000000000000000000000000000081525060200191505060405180910390fd5b61201d34600160008060009054906101000a900473ffffffffffffffffffffffffffffffffffffffff1673ffffffffffffffffffffffffffffffffffffffff1673ffffffffffffffffffffffffffffffffffffffff1681526020019081526020016000205461236290919063ffffffff16565b600160008060009054906101000a900473ffffffffffffffffffffffffffffffffffffffff1673ffffffffffffffffffffffffffffffffffffffff1673ffffffffffffffffffffffffffffffffffffffff168152602001908152602001600020819055505050565b60006003600083815260200190815260200160002060040154905061211381600160008060009054906101000a900473ffffffffffffffffffffffffffffffffffffffff1673ffffffffffffffffffffffffffffffffffffffff1673ffffffffffffffffffffffffffffffffffffffff168152602001908152602001600020546123ea90919063ffffffff16565b600160008060009054906101000a900473ffffffffffffffffffffffffffffffffffffffff1673ffffffffffffffffffffffffffffffffffffffff1673ffffffffffffffffffffffffffffffffffffffff168152602001908152602001600020819055506121c981600160003373ffffffffffffffffffffffffffffffffffffffff1673ffffffffffffffffffffffffffffffffffffffff1681526020019081526020016000205461236290919063ffffffff16565b600160003373ffffffffffffffffffffffffffffffffffffffff1673ffffffffffffffffffffffffffffffffffffffff168152602001908152602001600020819055503373ffffffffffffffffffffffffffffffffffffffff166108fc829081150290604051600060405180830381858888f19350505050158015612252573d6000803e3d6000fd5b505050565b806003600084815260200190815260200160002060070160006101000a81548160ff0219169083600281111561228957fe5b02179055505050565b6000808314156122a55760009050612312565b60008284029050828482816122b657fe5b041461230d576040517f08c379a000000000000000000000000000000000000000000000000000000000815260040180806020018281038252602181526020018061277b6021913960400191505060405180910390fd5b809150505b92915050565b600061235a83836040518060400160405280601a81526020017f536166654d6174683a206469766973696f6e206279207a65726f000000000000815250612434565b905092915050565b6000808284019050838110156123e0576040517f08c379a000000000000000000000000000000000000000000000000000000000815260040180806020018281038252601b8152602001807f536166654d6174683a206164646974696f6e206f766572666c6f77000000000081525060200191505060405180910390fd5b8091505092915050565b600061242c83836040518060400160405280601e81526020017f536166654d6174683a207375627472616374696f6e206f766572666c6f7700008152506124fa565b905092915050565b600080831182906124e0576040517f08c379a00000000000000000000000000000000000000000000000000000000081526004018080602001828103825283818151815260200191508051906020019080838360005b838110156124a557808201518184015260208101905061248a565b50505050905090810190601f1680156124d25780820380516001836020036101000a031916815260200191505b509250505060405180910390fd5b5060008385816124ec57fe5b049050809150509392505050565b60008383111582906125a7576040517f08c379a00000000000000000000000000000000000000000000000000000000081526004018080602001828103825283818151815260200191508051906020019080838360005b8381101561256c578082015181840152602081019050612551565b50505050905090810190601f1680156125995780820380516001836020036101000a031916815260200191505b509250505060405180910390fd5b5060008385039050809150509392505050565b604051806060016040528060008152602001606081526020016000151581525090565b828054600181600116156101000203166002900490600052602060002090601f016020900481019282601f1061261e57805160ff191683800117855561264c565b8280016001018555821561264c579182015b8281111561264b578251825591602001919060010190612630565b5b5090506126599190612755565b5090565b604051806101400160405280600073ffffffffffffffffffffffffffffffffffffffff168152602001600081526020016000815260200160008152602001600081526020016060815260200160608152602001600060028111156126bd57fe5b81526020016000151581526020016000151581525090565b828054600181600116156101000203166002900490600052602060002090601f016020900481019282601f1061271657805160ff1916838001178555612744565b82800160010185558215612744579182015b82811115612743578251825591602001919060010190612728565b5b5090506127519190612755565b5090565b61277791905b8082111561277357600081600090555060010161275b565b5090565b9056fe536166654d6174683a206d756c7469706c69636174696f6e206f766572666c6f77a265627a7a72315820a1b88a764a1a848b9ed2f27fdb2872e37ce91921e7ca3a4d73cee22900f752fa64736f6c63430005100032",
  "source": "pragma solidity ^0.5.11;\r\n\r\nimport \"@openzeppelin/contracts/math/SafeMath.sol\";\r\n\r\ncontract placeDeMarche{\r\n    \r\n      using SafeMath for uint256;\r\n    \r\n    struct Utilisateur{\r\n        uint256 reputation;\r\n        string nom;\r\n        bool estUtilisateur;\r\n    }\r\n    \r\n    struct Demande{\r\n            address entreprise;\r\n            uint256 delai;\r\n            uint256 startTime;\r\n            uint256 miniReputation;\r\n            uint256 remuniration;\r\n            string description;\r\n            string lien;\r\n            Etat etat;\r\n            mapping(address=>bool) listeCandidats;\r\n            bool estDemande;\r\n            bool estLivre;\r\n    }\r\n    \r\n    address owner;\r\n    mapping(address =>uint256)public balance;\r\n    mapping (address=>Utilisateur) public listeUtilisateur;\r\n    mapping (uint256=>Demande) public listeDemande;\r\n    \r\n    uint256 indice;\r\n    uint256 decimal=100;\r\n    uint256 frais=102;\r\n    uint256 compteurIndice;\r\n\r\n    event OffreAccepte(uint256 _indice,address _add);\r\n    \r\n    enum Etat {OUVERTE, ENCOURS, FERMEE}\r\n    Etat etat;\r\n    \r\n//constructor\r\n    constructor()public{\r\n        owner=msg.sender;\r\n    }\r\n    \r\n    //l'etat de la demande\r\n\r\n    modifier etatDemande(uint256 _indice,Etat _etat){\r\n        require(listeDemande[_indice].etat == _etat,'pas possible');\r\n        _;\r\n    }\r\n    \r\n    //fonction pour passer  l'etat suivante\r\n    function changeEtat(uint256 _indice,Etat _etat)internal{\r\n        listeDemande[_indice].etat=_etat;\r\n    }\r\n    \r\n    //passer  l'eta suivante apres l'execution de la fonction\r\n    modifier nextEtatDemande(uint256 _indice,Etat _etat){\r\n        _;\r\n        changeEtat(_indice,_etat);\r\n    }\r\n \r\n //fonction pour vridier si c'est un utilisateurs\r\nmodifier estUtilisateur(address _adress){\r\n     require(listeUtilisateur[_adress].estUtilisateur,'pas utilisateur');\r\n  //      estUtilisateur = true;\r\n        _;\r\n}\r\n\r\nmodifier chekDemande(uint256 _indice){\r\n  require(listeDemande[_indice].estDemande,'pas Demande');\r\n  //  estDemande=true;\r\n        _;\r\n}\r\n\r\n\r\nmodifier estCandidat(uint256 _indice,address _add){\r\n     require(listeDemande[_indice].listeCandidats[_add],'pas Candidat');\r\n //       estCandidat = true;\r\n        _;\r\n}\r\n\r\nmodifier estEntreprise(uint256 _indice){\r\n     require(listeDemande[_indice].entreprise==msg.sender,'pas entreprise');\r\n   //     estEntreprise= true;\r\n        _;\r\n}\r\n\r\nmodifier estAccepte (uint256 _indice,address _add){\r\n       require(listeDemande[_indice].listeCandidats[_add],'Vous netes pas accept');\r\n       _;\r\n}\r\n\r\n    //inscrir un utilisateur\r\nfunction inscription (string memory nom,uint256 _experience)public{\r\n        require(!listeUtilisateur[msg.sender].estUtilisateur);\r\n        uint256 reputation=experience(_experience);\r\n       Utilisateur memory nouveauUtilisateur=Utilisateur(reputation,nom,true);\r\n       listeUtilisateur[msg.sender]=nouveauUtilisateur;\r\n      //  utilisateurs.push(msg.sender);\r\n    }\r\n\r\n//pour donner une reputation en fonction de l'experience\r\nfunction experience(uint256 _experience)internal pure returns(uint256){\r\n        uint256 exp;\r\n        if(_experience<2){\r\n           exp=1;\r\n        }else if(_experience>=2 && _experience<5){\r\n            exp=3;\r\n        }else if(_experience>=5){\r\n            exp=5;\r\n        }\r\n         return exp;\r\n    }\r\n    \r\n\r\nfunction balanceOf()external view returns(uint256){\r\n    return address(this).balance;\r\n}\r\n\r\nfunction payer(uint256 _somme) private{\r\n   uint256 somme=(_somme.mul(frais)).div(decimal);\r\n    require(msg.value>=somme,'Pas assez de WEI');\r\n    balance[owner]=balance[owner].add(msg.value);\r\n}\r\n\r\nfunction remunerer(uint256 _indice)private{\r\n    uint256 remuniration=listeDemande[_indice].remuniration;\r\n    balance[owner]=balance[owner].sub(remuniration);\r\n    balance[msg.sender]=balance[msg.sender].add(remuniration);\r\n    msg.sender.transfer(remuniration);\r\n}\r\n\r\nfunction ajouterDemande(string calldata description,uint256 miniReputation,uint256 _delai, uint256 remuniration)\r\n    external\r\n    payable \r\n    estUtilisateur(msg.sender){\r\n        payer(remuniration);\r\n        uint256 startTime;\r\n        Demande memory nouvelleDemande=Demande(msg.sender,_delai,startTime,miniReputation,remuniration,description,\"\",Etat.OUVERTE,true,false);\r\n        listeDemande[indice]=nouvelleDemande;\r\n        indice++;\r\n        compteurIndice++;\r\n    }\r\n\r\nfunction listerDemande () \r\n        public \r\n        view\r\n        returns(string memory ,uint256)\r\n        {\r\n            uint256 miniReputation;\r\n            string memory description;\r\n            for(uint256 i=0 ; i<compteurIndice ; i++){\r\n                miniReputation=listeDemande[i].miniReputation;\r\n                description=listeDemande[i].description;\r\n              return (description,miniReputation);\r\n            }\r\n        }\r\n\r\nfunction postuler(uint256 _indice) \r\n        public \r\n        view\r\n        estUtilisateur(msg.sender) \r\n        chekDemande(_indice)\r\n        etatDemande( _indice,Etat.OUVERTE)\r\n        {\r\n            require(msg.sender!=listeDemande[_indice].entreprise,'vous etes entreprise');\r\n        //avant tout faut verifier l'etat de la demande\r\n            require(listeDemande[_indice].miniReputation<=listeUtilisateur[msg.sender].reputation,'pas assez dexperience');\r\n            listeDemande[_indice].listeCandidats[msg.sender];\r\n            //creation event pour prevenir recruteur\r\n        }\r\n\r\n\r\nfunction accepterOffre(uint256 _indice,address _add)\r\n        public\r\n        estEntreprise(_indice) \r\n        estCandidat(_indice,_add)\r\n        chekDemande(_indice)\r\n        etatDemande( _indice,Etat.OUVERTE)\r\n        nextEtatDemande(_indice,Etat.ENCOURS)\r\n        {\r\n           listeDemande[_indice].startTime=now;\r\n            listeDemande[_indice].listeCandidats[_add]=true;\r\n                emit OffreAccepte(_indice, _add);\r\n        }\r\n\r\n\r\n\r\nfunction checkDemande(uint256 _indice,address _add)\r\n        public\r\n        estEntreprise(_indice) \r\n        estAccepte( _indice, _add)\r\n        chekDemande(_indice)\r\n        etatDemande( _indice,Etat.ENCOURS)\r\n        returns(bool)\r\n    {\r\n    uint256 startTime=listeDemande[_indice].startTime;\r\n    uint256 delai = startTime+listeDemande[_indice].delai;\r\n     if(delai<now){\r\n       require(!listeDemande[_indice].estLivre);\r\n           listeUtilisateur[_add].reputation--;\r\n           return false;\r\n     }else{\r\n         return true;\r\n     }\r\n}\r\n\r\nfunction livraison(string memory _lien,uint256 _indice)\r\n        public\r\n        estAccepte( _indice,msg.sender) \r\n        chekDemande(_indice) \r\n        etatDemande( _indice,Etat.ENCOURS)\r\n        nextEtatDemande(_indice,Etat.FERMEE)\r\n        {\r\n            require(!listeDemande[indice].estLivre,'deja livre');\r\n            string memory lien = _lien;\r\n            listeDemande[_indice].lien=lien;//faut hacher le lien\r\n            remunerer(_indice);\r\n            listeUtilisateur[msg.sender].reputation++;\r\n           listeDemande[_indice].estLivre=true;\r\n        }\r\n\r\n\r\n}\r\n\r\n",
  "sourcePath": "C:\\Users\\khati\\Desktop\\Defi-II\\placedemarche\\contracts\\PlaceDeMarche.sol",
  "compiler": {
    "name": "solc",
    "version": "0.5.16+commit.9c3226ce.Emscripten.clang"
  },
  "schemaVersion": "3.0.23",
  "updatedAt": "2020-03-04T14:38:04.899Z",
  "networkType": "ethereum",
  "devdoc": {
    "methods": {}
  },
  "userdoc": {
    "methods": {}
  }
}